{
  "contractName": "ArbSlippageTrading",
  "abi": [
    {
      "inputs": [],
      "payable": false,
      "stateMutability": "nonpayable",
      "type": "constructor"
    },
    {
      "anonymous": false,
      "inputs": [
        {
          "indexed": true,
          "internalType": "address",
          "name": "_from",
          "type": "address"
        },
        {
          "indexed": true,
          "internalType": "address",
          "name": "_assetAddress",
          "type": "address"
        },
        {
          "indexed": false,
          "internalType": "uint256",
          "name": "amount",
          "type": "uint256"
        }
      ],
      "name": "LogWithdraw",
      "type": "event"
    },
    {
      "anonymous": false,
      "inputs": [
        {
          "indexed": true,
          "internalType": "address",
          "name": "previousOwner",
          "type": "address"
        },
        {
          "indexed": true,
          "internalType": "address",
          "name": "newOwner",
          "type": "address"
        }
      ],
      "name": "OwnershipTransferred",
      "type": "event"
    },
    {
      "payable": true,
      "stateMutability": "payable",
      "type": "fallback"
    },
    {
      "constant": true,
      "inputs": [],
      "name": "addressesProvider",
      "outputs": [
        {
          "internalType": "contract ILendingPoolAddressesProvider",
          "name": "",
          "type": "address"
        }
      ],
      "payable": false,
      "stateMutability": "view",
      "type": "function"
    },
    {
      "constant": true,
      "inputs": [],
      "name": "isOwner",
      "outputs": [
        {
          "internalType": "bool",
          "name": "",
          "type": "bool"
        }
      ],
      "payable": false,
      "stateMutability": "view",
      "type": "function"
    },
    {
      "constant": true,
      "inputs": [],
      "name": "owner",
      "outputs": [
        {
          "internalType": "address",
          "name": "",
          "type": "address"
        }
      ],
      "payable": false,
      "stateMutability": "view",
      "type": "function"
    },
    {
      "constant": true,
      "inputs": [],
      "name": "proxy",
      "outputs": [
        {
          "internalType": "contract KyberNetworkProxyInterface",
          "name": "",
          "type": "address"
        }
      ],
      "payable": false,
      "stateMutability": "view",
      "type": "function"
    },
    {
      "constant": false,
      "inputs": [],
      "name": "renounceOwnership",
      "outputs": [],
      "payable": false,
      "stateMutability": "nonpayable",
      "type": "function"
    },
    {
      "constant": false,
      "inputs": [
        {
          "internalType": "address",
          "name": "newOwner",
          "type": "address"
        }
      ],
      "name": "transferOwnership",
      "outputs": [],
      "payable": false,
      "stateMutability": "nonpayable",
      "type": "function"
    },
    {
      "constant": false,
      "inputs": [
        {
          "internalType": "address",
          "name": "_assetAddress",
          "type": "address"
        }
      ],
      "name": "withdraw",
      "outputs": [],
      "payable": false,
      "stateMutability": "nonpayable",
      "type": "function"
    },
    {
      "constant": false,
      "inputs": [
        {
          "internalType": "address",
          "name": "fromAddress",
          "type": "address"
        },
        {
          "internalType": "address",
          "name": "uniSwapContract",
          "type": "address"
        },
        {
          "internalType": "uint256",
          "name": "theAmount",
          "type": "uint256"
        }
      ],
      "name": "kyberToUniSwapArb",
      "outputs": [
        {
          "internalType": "bool",
          "name": "",
          "type": "bool"
        }
      ],
      "payable": true,
      "stateMutability": "payable",
      "type": "function"
    },
    {
      "constant": false,
      "inputs": [
        {
          "internalType": "address",
          "name": "fromAddress",
          "type": "address"
        },
        {
          "internalType": "address",
          "name": "uniSwapTokenAddress",
          "type": "address"
        },
        {
          "internalType": "uint256",
          "name": "theAmount",
          "type": "uint256"
        }
      ],
      "name": "uniswapToKyberArb",
      "outputs": [
        {
          "internalType": "bool",
          "name": "",
          "type": "bool"
        }
      ],
      "payable": true,
      "stateMutability": "payable",
      "type": "function"
    },
    {
      "constant": false,
      "inputs": [],
      "name": "withdrawETHAndTokens",
      "outputs": [],
      "payable": false,
      "stateMutability": "nonpayable",
      "type": "function"
    },
    {
      "constant": false,
      "inputs": [
        {
          "internalType": "address",
          "name": "_reserve",
          "type": "address"
        },
        {
          "internalType": "uint256",
          "name": "_loanedamount",
          "type": "uint256"
        },
        {
          "internalType": "uint256",
          "name": "_fee",
          "type": "uint256"
        },
        {
          "internalType": "bytes",
          "name": "_params",
          "type": "bytes"
        }
      ],
      "name": "executeOperation",
      "outputs": [],
      "payable": false,
      "stateMutability": "nonpayable",
      "type": "function"
    },
    {
      "constant": false,
      "inputs": [],
      "name": "flashloan",
      "outputs": [],
      "payable": false,
      "stateMutability": "nonpayable",
      "type": "function"
    }
  ],
  "bytecode": "0x608060405273692f391bcc85cefce8c237c01e1f636bbd70ea4d600160006101000a81548173ffffffffffffffffffffffffffffffffffffffff021916908373ffffffffffffffffffffffffffffffffffffffff16021790555073c4375b7de8af5a38a93548eb8453a498222c4ff2600260006101000a81548173ffffffffffffffffffffffffffffffffffffffff021916908373ffffffffffffffffffffffffffffffffffffffff1602179055506040518060400160405280600481526020017f5045524d0000000000000000000000000000000000000000000000000000000081525060039080519060200190620000fb9291906200020d565b503480156200010957600080fd5b50336000806101000a81548173ffffffffffffffffffffffffffffffffffffffff021916908373ffffffffffffffffffffffffffffffffffffffff1602179055506000809054906101000a900473ffffffffffffffffffffffffffffffffffffffff1673ffffffffffffffffffffffffffffffffffffffff16600073ffffffffffffffffffffffffffffffffffffffff167f8be0079c531659141344cd1fd0a4f28419497f9722a3daafe3b4186f6b6457e060405160405180910390a333600460006101000a81548173ffffffffffffffffffffffffffffffffffffffff021916908373ffffffffffffffffffffffffffffffffffffffff160217905550620002bc565b828054600181600116156101000203166002900490600052602060002090601f016020900481019282601f106200025057805160ff191683800117855562000281565b8280016001018555821562000281579182015b828111156200028057825182559160200191906001019062000263565b5b50905062000290919062000294565b5090565b620002b991905b80821115620002b55760008160009055506001016200029b565b5090565b90565b611df480620002cc6000396000f3fe6080604052600436106100a75760003560e01c80638f32d59b116100645780638f32d59b1461021c578063b74557d91461024b578063c72c4d10146102d1578063ec55688914610328578063ee8725581461037f578063f2fde38b14610439576100a7565b80631b89b61a146100a957806351cff8d9146100c0578063715018a6146101115780637e5fc4581461012857806380576f75146101ae5780638da5cb5b146101c5575b005b3480156100b557600080fd5b506100be61048a565b005b3480156100cc57600080fd5b5061010f600480360360208110156100e357600080fd5b81019080803573ffffffffffffffffffffffffffffffffffffffff1690602001909291905050506106fd565b005b34801561011d57600080fd5b50610126610948565b005b6101946004803603606081101561013e57600080fd5b81019080803573ffffffffffffffffffffffffffffffffffffffff169060200190929190803573ffffffffffffffffffffffffffffffffffffffff16906020019092919080359060200190929190505050610a61565b604051808215151515815260200191505060405180910390f35b3480156101ba57600080fd5b506101c3610b83565b005b3480156101d157600080fd5b506101da610dbd565b604051808273ffffffffffffffffffffffffffffffffffffffff1673ffffffffffffffffffffffffffffffffffffffff16815260200191505060405180910390f35b34801561022857600080fd5b50610231610de6565b604051808215151515815260200191505060405180910390f35b6102b76004803603606081101561026157600080fd5b81019080803573ffffffffffffffffffffffffffffffffffffffff169060200190929190803573ffffffffffffffffffffffffffffffffffffffff16906020019092919080359060200190929190505050610e3d565b604051808215151515815260200191505060405180910390f35b3480156102dd57600080fd5b506102e6610f58565b604051808273ffffffffffffffffffffffffffffffffffffffff1673ffffffffffffffffffffffffffffffffffffffff16815260200191505060405180910390f35b34801561033457600080fd5b5061033d610f70565b604051808273ffffffffffffffffffffffffffffffffffffffff1673ffffffffffffffffffffffffffffffffffffffff16815260200191505060405180910390f35b34801561038b57600080fd5b50610437600480360360808110156103a257600080fd5b81019080803573ffffffffffffffffffffffffffffffffffffffff1690602001909291908035906020019092919080359060200190929190803590602001906401000000008111156103f357600080fd5b82018360208201111561040557600080fd5b8035906020019184600183028401116401000000008311171561042757600080fd5b9091929391929390505050610f96565b005b34801561044557600080fd5b506104886004803603602081101561045c57600080fd5b81019080803573ffffffffffffffffffffffffffffffffffffffff169060200190929190505050611021565b005b600460009054906101000a900473ffffffffffffffffffffffffffffffffffffffff1673ffffffffffffffffffffffffffffffffffffffff163373ffffffffffffffffffffffffffffffffffffffff16146104e457600080fd5b6060604051806020016040528060008152509050600067016345785d8a00009050600073ff795577d9ac8bd7d90ee22b6c1703490b6512fd9050600073506b0b2cf20faa8f38a4e2b524ee43e1f4458cc573ffffffffffffffffffffffffffffffffffffffff16630261bf8b6040518163ffffffff1660e01b815260040160206040518083038186803b15801561057a57600080fd5b505afa15801561058e573d6000803e3d6000fd5b505050506040513d60208110156105a457600080fd5b810190808051906020019092919050505090508073ffffffffffffffffffffffffffffffffffffffff16635cffe9de308486886040518563ffffffff1660e01b8152600401808573ffffffffffffffffffffffffffffffffffffffff1673ffffffffffffffffffffffffffffffffffffffff1681526020018473ffffffffffffffffffffffffffffffffffffffff1673ffffffffffffffffffffffffffffffffffffffff16815260200183815260200180602001828103825283818151815260200191508051906020019080838360005b83811015610690578082015181840152602081019050610675565b50505050905090810190601f1680156106bd5780820380516001836020036101000a031916815260200191505b5095505050505050600060405180830381600087803b1580156106df57600080fd5b505af11580156106f3573d6000803e3d6000fd5b5050505050505050565b600460009054906101000a900473ffffffffffffffffffffffffffffffffffffffff1673ffffffffffffffffffffffffffffffffffffffff163373ffffffffffffffffffffffffffffffffffffffff161461075757600080fd5b60008073ffffffffffffffffffffffffffffffffffffffff168273ffffffffffffffffffffffffffffffffffffffff1614156107f95760003090508073ffffffffffffffffffffffffffffffffffffffff163191503373ffffffffffffffffffffffffffffffffffffffff166108fc839081150290604051600060405180830381858888f193505050501580156107f2573d6000803e3d6000fd5b50506108df565b8173ffffffffffffffffffffffffffffffffffffffff166370a08231306040518263ffffffff1660e01b8152600401808273ffffffffffffffffffffffffffffffffffffffff1673ffffffffffffffffffffffffffffffffffffffff16815260200191505060206040518083038186803b15801561087657600080fd5b505afa15801561088a573d6000803e3d6000fd5b505050506040513d60208110156108a057600080fd5b810190808051906020019092919050505090506108de33828473ffffffffffffffffffffffffffffffffffffffff166110879092919063ffffffff16565b5b8173ffffffffffffffffffffffffffffffffffffffff163373ffffffffffffffffffffffffffffffffffffffff167f9207361cc2a04b9c7a06691df1eb87c6a63957ae88bf01d0d18c81e3d1272099836040518082815260200191505060405180910390a35050565b600460009054906101000a900473ffffffffffffffffffffffffffffffffffffffff1673ffffffffffffffffffffffffffffffffffffffff163373ffffffffffffffffffffffffffffffffffffffff16146109a257600080fd5b600073ffffffffffffffffffffffffffffffffffffffff166000809054906101000a900473ffffffffffffffffffffffffffffffffffffffff1673ffffffffffffffffffffffffffffffffffffffff167f8be0079c531659141344cd1fd0a4f28419497f9722a3daafe3b4186f6b6457e060405160405180910390a360008060006101000a81548173ffffffffffffffffffffffffffffffffffffffff021916908373ffffffffffffffffffffffffffffffffffffffff160217905550565b6000600460009054906101000a900473ffffffffffffffffffffffffffffffffffffffff1673ffffffffffffffffffffffffffffffffffffffff163373ffffffffffffffffffffffffffffffffffffffff1614610abd57600080fd5b600083905060008173ffffffffffffffffffffffffffffffffffffffff166395e3c50b856001426040518463ffffffff1660e01b8152600401808481526020018381526020018281526020019350505050602060405180830381600087803b158015610b2857600080fd5b505af1158015610b3c573d6000803e3d6000fd5b505050506040513d6020811015610b5257600080fd5b810190808051906020019092919050505090506000869050610b748183611158565b50600193505050509392505050565b600460009054906101000a900473ffffffffffffffffffffffffffffffffffffffff1673ffffffffffffffffffffffffffffffffffffffff163373ffffffffffffffffffffffffffffffffffffffff1614610bdd57600080fd5b3373ffffffffffffffffffffffffffffffffffffffff166108fc479081150290604051600060405180830381858888f19350505050506000600260009054906101000a900473ffffffffffffffffffffffffffffffffffffffff16905060008173ffffffffffffffffffffffffffffffffffffffff166370a08231306040518263ffffffff1660e01b8152600401808273ffffffffffffffffffffffffffffffffffffffff1673ffffffffffffffffffffffffffffffffffffffff16815260200191505060206040518083038186803b158015610cb957600080fd5b505afa158015610ccd573d6000803e3d6000fd5b505050506040513d6020811015610ce357600080fd5b810190808051906020019092919050505090508173ffffffffffffffffffffffffffffffffffffffff1663a9059cbb33836040518363ffffffff1660e01b8152600401808373ffffffffffffffffffffffffffffffffffffffff1673ffffffffffffffffffffffffffffffffffffffff16815260200182815260200192505050602060405180830381600087803b158015610d7d57600080fd5b505af1158015610d91573d6000803e3d6000fd5b505050506040513d6020811015610da757600080fd5b8101908080519060200190929190505050505050565b60008060009054906101000a900473ffffffffffffffffffffffffffffffffffffffff16905090565b60008060009054906101000a900473ffffffffffffffffffffffffffffffffffffffff1673ffffffffffffffffffffffffffffffffffffffff163373ffffffffffffffffffffffffffffffffffffffff1614905090565b6000600460009054906101000a900473ffffffffffffffffffffffffffffffffffffffff1673ffffffffffffffffffffffffffffffffffffffff163373ffffffffffffffffffffffffffffffffffffffff1614610e9957600080fd5b60008490506000610eaa8285611158565b905060008590508073ffffffffffffffffffffffffffffffffffffffff1663f39b5b9b836001426040518463ffffffff1660e01b815260040180838152602001828152602001925050506020604051808303818588803b158015610f0d57600080fd5b505af1158015610f21573d6000803e3d6000fd5b50505050506040513d6020811015610f3857600080fd5b810190808051906020019092919050505050600193505050509392505050565b73506b0b2cf20faa8f38a4e2b524ee43e1f4458cc581565b600160009054906101000a900473ffffffffffffffffffffffffffffffffffffffff1681565b610fa03086611698565b841115610ff8576040517f08c379a000000000000000000000000000000000000000000000000000000000815260040180806020018281038252602e815260200180611d68602e913960400191505060405180910390fd5b600061100d84866117b590919063ffffffff16565b9050611019868261183d565b505050505050565b600460009054906101000a900473ffffffffffffffffffffffffffffffffffffffff1673ffffffffffffffffffffffffffffffffffffffff163373ffffffffffffffffffffffffffffffffffffffff161461107b57600080fd5b611084816118e6565b50565b611153838473ffffffffffffffffffffffffffffffffffffffff1663a9059cbb905060e01b8484604051602401808373ffffffffffffffffffffffffffffffffffffffff1673ffffffffffffffffffffffffffffffffffffffff16815260200182815260200192505050604051602081830303815290604052907bffffffffffffffffffffffffffffffffffffffffffffffffffffffff19166020820180517bffffffffffffffffffffffffffffffffffffffffffffffffffffffff83818316178352505050506119de565b505050565b60008273ffffffffffffffffffffffffffffffffffffffff166323b872dd3330856040518463ffffffff1660e01b8152600401808473ffffffffffffffffffffffffffffffffffffffff1673ffffffffffffffffffffffffffffffffffffffff1681526020018373ffffffffffffffffffffffffffffffffffffffff1673ffffffffffffffffffffffffffffffffffffffff1681526020018281526020019350505050602060405180830381600087803b15801561121557600080fd5b505af1158015611229573d6000803e3d6000fd5b505050506040513d602081101561123f57600080fd5b8101908080519060200190929190505050508273ffffffffffffffffffffffffffffffffffffffff1663095ea7b3600160009054906101000a900473ffffffffffffffffffffffffffffffffffffffff1660006040518363ffffffff1660e01b8152600401808373ffffffffffffffffffffffffffffffffffffffff1673ffffffffffffffffffffffffffffffffffffffff16815260200182815260200192505050602060405180830381600087803b1580156112fb57600080fd5b505af115801561130f573d6000803e3d6000fd5b505050506040513d602081101561132557600080fd5b8101908080519060200190929190505050508273ffffffffffffffffffffffffffffffffffffffff1663095ea7b3600160009054906101000a900473ffffffffffffffffffffffffffffffffffffffff16846040518363ffffffff1660e01b8152600401808373ffffffffffffffffffffffffffffffffffffffff1673ffffffffffffffffffffffffffffffffffffffff16815260200182815260200192505050602060405180830381600087803b1580156113e057600080fd5b505af11580156113f4573d6000803e3d6000fd5b505050506040513d602081101561140a57600080fd5b8101908080519060200190929190505050506000600160009054906101000a900473ffffffffffffffffffffffffffffffffffffffff1673ffffffffffffffffffffffffffffffffffffffff166329589f61600260009054906101000a900473ffffffffffffffffffffffffffffffffffffffff168573eeeeeeeeeeeeeeeeeeeeeeeeeeeeeeeeeeeeeeee307a13726987666190aeec798abe93f11d65ee7f3400000000000000006000600460036040518963ffffffff1660e01b8152600401808973ffffffffffffffffffffffffffffffffffffffff1673ffffffffffffffffffffffffffffffffffffffff1681526020018881526020018773ffffffffffffffffffffffffffffffffffffffff1673ffffffffffffffffffffffffffffffffffffffff1681526020018673ffffffffffffffffffffffffffffffffffffffff1673ffffffffffffffffffffffffffffffffffffffff1681526020018581526020018481526020018373ffffffffffffffffffffffffffffffffffffffff1673ffffffffffffffffffffffffffffffffffffffff1681526020018060200182810382528381815460018160011615610100020316600290048152602001915080546001816001161561010002031660029004801561162a5780601f106115ff5761010080835404028352916020019161162a565b820191906000526020600020905b81548152906001019060200180831161160d57829003601f168201915b50509950505050505050505050602060405180830381600087803b15801561165157600080fd5b505af1158015611665573d6000803e3d6000fd5b505050506040513d602081101561167b57600080fd5b810190808051906020019092919050505090508091505092915050565b60006116a2611c29565b73ffffffffffffffffffffffffffffffffffffffff168273ffffffffffffffffffffffffffffffffffffffff1614156116f4578273ffffffffffffffffffffffffffffffffffffffff163190506117af565b8173ffffffffffffffffffffffffffffffffffffffff166370a08231846040518263ffffffff1660e01b8152600401808273ffffffffffffffffffffffffffffffffffffffff1673ffffffffffffffffffffffffffffffffffffffff16815260200191505060206040518083038186803b15801561177157600080fd5b505afa158015611785573d6000803e3d6000fd5b505050506040513d602081101561179b57600080fd5b810190808051906020019092919050505090505b92915050565b600080828401905083811015611833576040517f08c379a000000000000000000000000000000000000000000000000000000000815260040180806020018281038252601b8152602001807f536166654d6174683a206164646974696f6e206f766572666c6f77000000000081525060200191505060405180910390fd5b8091505092915050565b600073506b0b2cf20faa8f38a4e2b524ee43e1f4458cc573ffffffffffffffffffffffffffffffffffffffff1663ed6ff7606040518163ffffffff1660e01b815260040160206040518083038186803b15801561189957600080fd5b505afa1580156118ad573d6000803e3d6000fd5b505050506040513d60208110156118c357600080fd5b810190808051906020019092919050505090506118e1818484611c45565b505050565b600073ffffffffffffffffffffffffffffffffffffffff168173ffffffffffffffffffffffffffffffffffffffff16141561192057600080fd5b8073ffffffffffffffffffffffffffffffffffffffff166000809054906101000a900473ffffffffffffffffffffffffffffffffffffffff1673ffffffffffffffffffffffffffffffffffffffff167f8be0079c531659141344cd1fd0a4f28419497f9722a3daafe3b4186f6b6457e060405160405180910390a3806000806101000a81548173ffffffffffffffffffffffffffffffffffffffff021916908373ffffffffffffffffffffffffffffffffffffffff16021790555050565b6119fd8273ffffffffffffffffffffffffffffffffffffffff16611d1c565b611a6f576040517f08c379a000000000000000000000000000000000000000000000000000000000815260040180806020018281038252601f8152602001807f5361666545524332303a2063616c6c20746f206e6f6e2d636f6e74726163740081525060200191505060405180910390fd5b600060608373ffffffffffffffffffffffffffffffffffffffff16836040518082805190602001908083835b60208310611abe5780518252602082019150602081019050602083039250611a9b565b6001836020036101000a0380198251168184511680821785525050505050509050019150506000604051808303816000865af19150503d8060008114611b20576040519150601f19603f3d011682016040523d82523d6000602084013e611b25565b606091505b509150915081611b9d576040517f08c379a00000000000000000000000000000000000000000000000000000000081526004018080602001828103825260208152602001807f5361666545524332303a206c6f772d6c6576656c2063616c6c206661696c656481525060200191505060405180910390fd5b600081511115611c2357808060200190516020811015611bbc57600080fd5b8101908080519060200190929190505050611c22576040517f08c379a000000000000000000000000000000000000000000000000000000000815260040180806020018281038252602a815260200180611d96602a913960400191505060405180910390fd5b5b50505050565b600073eeeeeeeeeeeeeeeeeeeeeeeeeeeeeeeeeeeeeeee905090565b611c4d611c29565b73ffffffffffffffffffffffffffffffffffffffff168273ffffffffffffffffffffffffffffffffffffffff161415611ceb578273ffffffffffffffffffffffffffffffffffffffff168160405180600001905060006040518083038185875af1925050503d8060008114611cde576040519150601f19603f3d011682016040523d82523d6000602084013e611ce3565b606091505b505050611d17565b611d1683828473ffffffffffffffffffffffffffffffffffffffff166110879092919063ffffffff16565b5b505050565b60008060007fc5d2460186f7233c927e7db2dcc703c0e500b653ca82273b7bfad8045d85a47060001b9050833f9150808214158015611d5e57506000801b8214155b9250505091905056fe496e76616c69642062616c616e63652c207761732074686520666c6173684c6f616e207375636365737366756c3f5361666545524332303a204552433230206f7065726174696f6e20646964206e6f742073756363656564a265627a7a72315820fc243bc9f65055574a8117e9e71f6e99f31ec096ea0868ad8d45a93e1e670d6564736f6c63430005100032",
  "source": "pragma solidity ^0.5.15;\n\n//import \"./aave/FlashLoanReceiverBase.sol\";\n//import \"./aave/ILendingPoolAddressesProvider.sol\";\n//import \"./aave/ILendingPool.sol\";\n\n//import \"openzeppelin-solidity/contracts/math/SafeMath.sol\";\n//import \"openzeppelin-solidity/contracts/token/ERC20/IERC20.sol\";\n//import \"openzeppelin-solidity/contracts/token/ERC20/SafeERC20.sol\";\n//import \"./IFlashLoanReceiver.sol\";\n//import \"./ILendingPoolAddressesProvider.sol\";\n//import \"./EthAddressLib.sol\";\n\nlibrary Address {\n    /**\n     * @dev Returns true if `account` is a contract.\n     *\n     * [IMPORTANT]\n     * ====\n     * It is unsafe to assume that an address for which this function returns\n     * false is an externally-owned account (EOA) and not a contract.\n     *\n     * Among others, `isContract` will return false for the following\n     * types of addresses:\n     *\n     *  - an externally-owned account\n     *  - a contract in construction\n     *  - an address where a contract will be created\n     *  - an address where a contract lived, but was destroyed\n     * ====\n     */\n    function isContract(address account) internal view returns (bool) {\n        // According to EIP-1052, 0x0 is the value returned for not-yet created accounts\n        // and 0xc5d2460186f7233c927e7db2dcc703c0e500b653ca82273b7bfad8045d85a470 is returned\n        // for accounts without code, i.e. `keccak256('')`\n        bytes32 codehash;\n        bytes32 accountHash = 0xc5d2460186f7233c927e7db2dcc703c0e500b653ca82273b7bfad8045d85a470;\n        // solhint-disable-next-line no-inline-assembly\n        assembly { codehash := extcodehash(account) }\n        return (codehash != accountHash && codehash != 0x0);\n    }\n\n    /**\n     * @dev Replacement for Solidity's `transfer`: sends `amount` wei to\n     * `recipient`, forwarding all available gas and reverting on errors.\n     *\n     * https://eips.ethereum.org/EIPS/eip-1884[EIP1884] increases the gas cost\n     * of certain opcodes, possibly making contracts go over the 2300 gas limit\n     * imposed by `transfer`, making them unable to receive funds via\n     * `transfer`. {sendValue} removes this limitation.\n     *\n     * https://diligence.consensys.net/posts/2019/09/stop-using-soliditys-transfer-now/[Learn more].\n     *\n     * IMPORTANT: because control is transferred to `recipient`, care must be\n     * taken to not create reentrancy vulnerabilities. Consider using\n     * {ReentrancyGuard} or the\n     * https://solidity.readthedocs.io/en/v0.5.11/security-considerations.html#use-the-checks-effects-interactions-pattern[checks-effects-interactions pattern].\n     */\n    function sendValue(address payable recipient, uint256 amount) internal {\n        require(address(this).balance >= amount, \"Address: insufficient balance\");\n\n        // solhint-disable-next-line avoid-low-level-calls, avoid-call-value\n        (bool success, ) = recipient.call.value(amount)(\"\");\n        require(success, \"Address: unable to send value, recipient may have reverted\");\n    }\n}\n\ninterface IERC20 {\n    /**\n     * @dev Returns the amount of tokens in existence.\n     */\n    function totalSupply() external view returns (uint256);\n\n    /**\n     * @dev Returns the amount of tokens owned by `account`.\n     */\n    function balanceOf(address account) external view returns (uint256);\n\n    /**\n     * @dev Moves `amount` tokens from the caller's account to `recipient`.\n     *\n     * Returns a boolean value indicating whether the operation succeeded.\n     *\n     * Emits a {Transfer} event.\n     */\n    function transfer(address recipient, uint256 amount) external returns (bool);\n\n    /**\n     * @dev Returns the remaining number of tokens that `spender` will be\n     * allowed to spend on behalf of `owner` through {transferFrom}. This is\n     * zero by default.\n     *\n     * This value changes when {approve} or {transferFrom} are called.\n     */\n    function allowance(address owner, address spender) external view returns (uint256);\n\n    /**\n     * @dev Sets `amount` as the allowance of `spender` over the caller's tokens.\n     *\n     * Returns a boolean value indicating whether the operation succeeded.\n     *\n     * IMPORTANT: Beware that changing an allowance with this method brings the risk\n     * that someone may use both the old and the new allowance by unfortunate\n     * transaction ordering. One possible solution to mitigate this race\n     * condition is to first reduce the spender's allowance to 0 and set the\n     * desired value afterwards:\n     * https://github.com/ethereum/EIPs/issues/20#issuecomment-263524729\n     *\n     * Emits an {Approval} event.\n     */\n    function approve(address spender, uint256 amount) external returns (bool);\n\n    /**\n     * @dev Moves `amount` tokens from `sender` to `recipient` using the\n     * allowance mechanism. `amount` is then deducted from the caller's\n     * allowance.\n     *\n     * Returns a boolean value indicating whether the operation succeeded.\n     *\n     * Emits a {Transfer} event.\n     */\n    function transferFrom(address sender, address recipient, uint256 amount) external returns (bool);\n\n    /**\n     * @dev Emitted when `value` tokens are moved from one account (`from`) to\n     * another (`to`).\n     *\n     * Note that `value` may be zero.\n     */\n    event Transfer(address indexed from, address indexed to, uint256 value);\n\n    /**\n     * @dev Emitted when the allowance of a `spender` for an `owner` is set by\n     * a call to {approve}. `value` is the new allowance.\n     */\n    event Approval(address indexed owner, address indexed spender, uint256 value);\n}\n\n\n/**\n * @dev Wrappers over Solidity's arithmetic operations with added overflow\n * checks.\n *\n * Arithmetic operations in Solidity wrap on overflow. This can easily result\n * in bugs, because programmers usually assume that an overflow raises an\n * error, which is the standard behavior in high level programming languages.\n * `SafeMath` restores this intuition by reverting the transaction when an\n * operation overflows.\n *\n * Using this library instead of the unchecked operations eliminates an entire\n * class of bugs, so it's recommended to use it always.\n */\nlibrary SafeMath {\n    /**\n     * @dev Returns the addition of two unsigned integers, reverting on\n     * overflow.\n     *\n     * Counterpart to Solidity's `+` operator.\n     *\n     * Requirements:\n     * - Addition cannot overflow.\n     */\n    function add(uint256 a, uint256 b) internal pure returns (uint256) {\n        uint256 c = a + b;\n        require(c >= a, \"SafeMath: addition overflow\");\n\n        return c;\n    }\n\n    /**\n     * @dev Returns the subtraction of two unsigned integers, reverting on\n     * overflow (when the result is negative).\n     *\n     * Counterpart to Solidity's `-` operator.\n     *\n     * Requirements:\n     * - Subtraction cannot overflow.\n     */\n    function sub(uint256 a, uint256 b) internal pure returns (uint256) {\n        return sub(a, b, \"SafeMath: subtraction overflow\");\n    }\n\n    /**\n     * @dev Returns the subtraction of two unsigned integers, reverting with custom message on\n     * overflow (when the result is negative).\n     *\n     * Counterpart to Solidity's `-` operator.\n     *\n     * Requirements:\n     * - Subtraction cannot overflow.\n     */\n    function sub(uint256 a, uint256 b, string memory errorMessage) internal pure returns (uint256) {\n        require(b <= a, errorMessage);\n        uint256 c = a - b;\n\n        return c;\n    }\n\n    /**\n     * @dev Returns the multiplication of two unsigned integers, reverting on\n     * overflow.\n     *\n     * Counterpart to Solidity's `*` operator.\n     *\n     * Requirements:\n     * - Multiplication cannot overflow.\n     */\n    function mul(uint256 a, uint256 b) internal pure returns (uint256) {\n        // Gas optimization: this is cheaper than requiring 'a' not being zero, but the\n        // benefit is lost if 'b' is also tested.\n        // See: https://github.com/OpenZeppelin/openzeppelin-contracts/pull/522\n        if (a == 0) {\n            return 0;\n        }\n\n        uint256 c = a * b;\n        require(c / a == b, \"SafeMath: multiplication overflow\");\n\n        return c;\n    }\n\n    /**\n     * @dev Returns the integer division of two unsigned integers. Reverts on\n     * division by zero. The result is rounded towards zero.\n     *\n     * Counterpart to Solidity's `/` operator. Note: this function uses a\n     * `revert` opcode (which leaves remaining gas untouched) while Solidity\n     * uses an invalid opcode to revert (consuming all remaining gas).\n     *\n     * Requirements:\n     * - The divisor cannot be zero.\n     */\n    function div(uint256 a, uint256 b) internal pure returns (uint256) {\n        return div(a, b, \"SafeMath: division by zero\");\n    }\n\n    /**\n     * @dev Returns the integer division of two unsigned integers. Reverts with custom message on\n     * division by zero. The result is rounded towards zero.\n     *\n     * Counterpart to Solidity's `/` operator. Note: this function uses a\n     * `revert` opcode (which leaves remaining gas untouched) while Solidity\n     * uses an invalid opcode to revert (consuming all remaining gas).\n     *\n     * Requirements:\n     * - The divisor cannot be zero.\n     */\n    function div(uint256 a, uint256 b, string memory errorMessage) internal pure returns (uint256) {\n        // Solidity only automatically asserts when dividing by 0\n        require(b > 0, errorMessage);\n        uint256 c = a / b;\n        // assert(a == b * c + a % b); // There is no case in which this doesn't hold\n\n        return c;\n    }\n\n    /**\n     * @dev Returns the remainder of dividing two unsigned integers. (unsigned integer modulo),\n     * Reverts when dividing by zero.\n     *\n     * Counterpart to Solidity's `%` operator. This function uses a `revert`\n     * opcode (which leaves remaining gas untouched) while Solidity uses an\n     * invalid opcode to revert (consuming all remaining gas).\n     *\n     * Requirements:\n     * - The divisor cannot be zero.\n     */\n    function mod(uint256 a, uint256 b) internal pure returns (uint256) {\n        return mod(a, b, \"SafeMath: modulo by zero\");\n    }\n\n    /**\n     * @dev Returns the remainder of dividing two unsigned integers. (unsigned integer modulo),\n     * Reverts with custom message when dividing by zero.\n     *\n     * Counterpart to Solidity's `%` operator. This function uses a `revert`\n     * opcode (which leaves remaining gas untouched) while Solidity uses an\n     * invalid opcode to revert (consuming all remaining gas).\n     *\n     * Requirements:\n     * - The divisor cannot be zero.\n     */\n    function mod(uint256 a, uint256 b, string memory errorMessage) internal pure returns (uint256) {\n        require(b != 0, errorMessage);\n        return a % b;\n    }\n}\n\n\n/**\n * @title SafeERC20\n * @dev Wrappers around ERC20 operations that throw on failure (when the token\n * contract returns false). Tokens that return no value (and instead revert or\n * throw on failure) are also supported, non-reverting calls are assumed to be\n * successful.\n * To use this library you can add a `using SafeERC20 for ERC20;` statement to your contract,\n * which allows you to call the safe operations as `token.safeTransfer(...)`, etc.\n */\nlibrary SafeERC20 {\n    using SafeMath for uint256;\n    using Address for address;\n\n    function safeTransfer(IERC20 token, address to, uint256 value) internal {\n        callOptionalReturn(token, abi.encodeWithSelector(token.transfer.selector, to, value));\n    }\n\n    function safeTransferFrom(IERC20 token, address from, address to, uint256 value) internal {\n        callOptionalReturn(token, abi.encodeWithSelector(token.transferFrom.selector, from, to, value));\n    }\n\n    function safeApprove(IERC20 token, address spender, uint256 value) internal {\n        // safeApprove should only be called when setting an initial allowance,\n        // or when resetting it to zero. To increase and decrease it, use\n        // 'safeIncreaseAllowance' and 'safeDecreaseAllowance'\n        // solhint-disable-next-line max-line-length\n        require((value == 0) || (token.allowance(address(this), spender) == 0),\n            \"SafeERC20: approve from non-zero to non-zero allowance\"\n        );\n        callOptionalReturn(token, abi.encodeWithSelector(token.approve.selector, spender, value));\n    }\n\n    function safeIncreaseAllowance(IERC20 token, address spender, uint256 value) internal {\n        uint256 newAllowance = token.allowance(address(this), spender).add(value);\n        callOptionalReturn(token, abi.encodeWithSelector(token.approve.selector, spender, newAllowance));\n    }\n\n    function safeDecreaseAllowance(IERC20 token, address spender, uint256 value) internal {\n        uint256 newAllowance = token.allowance(address(this), spender).sub(value, \"SafeERC20: decreased allowance below zero\");\n        callOptionalReturn(token, abi.encodeWithSelector(token.approve.selector, spender, newAllowance));\n    }\n\n    /**\n     * @dev Imitates a Solidity high-level call (i.e. a regular function call to a contract), relaxing the requirement\n     * on the return value: the return value is optional (but if data is returned, it must not be false).\n     * @param token The token targeted by the call.\n     * @param data The call data (encoded using abi.encode or one of its variants).\n     */\n    function callOptionalReturn(IERC20 token, bytes memory data) private {\n        // We need to perform a low level call here, to bypass Solidity's return data size checking mechanism, since\n        // we're implementing it ourselves.\n\n        // A Solidity high level call has three parts:\n        //  1. The target address is checked to verify it contains contract code\n        //  2. The call itself is made, and success asserted\n        //  3. The return value is decoded, which in turn checks the size of the returned data.\n        // solhint-disable-next-line max-line-length\n        require(address(token).isContract(), \"SafeERC20: call to non-contract\");\n\n        // solhint-disable-next-line avoid-low-level-calls\n        (bool success, bytes memory returndata) = address(token).call(data);\n        require(success, \"SafeERC20: low-level call failed\");\n\n        if (returndata.length > 0) { // Return data is optional\n            // solhint-disable-next-line max-line-length\n            require(abi.decode(returndata, (bool)), \"SafeERC20: ERC20 operation did not succeed\");\n        }\n    }\n}\n\n\n\nlibrary EthAddressLib {\n\n    /**\n    * @dev returns the address used within the protocol to identify ETH\n    * @return the address assigned to ETH\n     */\n    function ethAddress() internal pure returns(address) {\n        return 0xEeeeeEeeeEeEeeEeEeEeeEEEeeeeEeeeeeeeEEeE;\n    }\n}\n\ninterface IFlashLoanReceiver {\n    function executeOperation(address _reserve, uint256 _amount, uint256 _fee, bytes calldata _params) external;\n}\n\ncontract ILendingPoolAddressesProvider {\n\n    function getLendingPool() public view returns (address);\n    function setLendingPoolImpl(address _pool) public;\n\n    function getLendingPoolCore() public view returns (address payable);\n    function setLendingPoolCoreImpl(address _lendingPoolCore) public;\n\n    function getLendingPoolConfigurator() public view returns (address);\n    function setLendingPoolConfiguratorImpl(address _configurator) public;\n\n    function getLendingPoolDataProvider() public view returns (address);\n    function setLendingPoolDataProviderImpl(address _provider) public;\n\n    function getLendingPoolParametersProvider() public view returns (address);\n    function setLendingPoolParametersProviderImpl(address _parametersProvider) public;\n\n    function getTokenDistributor() public view returns (address);\n    function setTokenDistributor(address _tokenDistributor) public;\n\n    function getFeeProvider() public view returns (address);\n    function setFeeProviderImpl(address _feeProvider) public;\n\n    function getLendingPoolLiquidationManager() public view returns (address);\n    function setLendingPoolLiquidationManager(address _manager) public;\n\n    function getLendingPoolManager() public view returns (address);\n    function setLendingPoolManager(address _lendingPoolManager) public;\n\n    function getPriceOracle() public view returns (address);\n    function setPriceOracle(address _priceOracle) public;\n\n    function getLendingRateOracle() public view returns (address);\n    function setLendingRateOracle(address _lendingRateOracle) public;\n\n}\n\n\ncontract Ownable {\n    address private _owner;\n\n    event OwnershipTransferred(address indexed previousOwner, address indexed newOwner);\n\n    /**\n     * @dev The Ownable constructor sets the original `owner` of the contract to the sender\n     * account.\n     */\n    constructor () internal {\n        _owner = msg.sender;\n        emit OwnershipTransferred(address(0), _owner);\n    }\n\n    /**\n     * @return the address of the owner.\n     */\n    function owner() public view returns (address) {\n        return _owner;\n    }\n\n    /**\n     * @dev Throws if called by any account other than the owner.\n     */\n    modifier onlyOwner() {\n        require(isOwner());\n        _;\n    }\n\n    /**\n     * @return true if `msg.sender` is the owner of the contract.\n     */\n    function isOwner() public view returns (bool) {\n        return msg.sender == _owner;\n    }\n\n    /**\n     * @dev Allows the current owner to relinquish control of the contract.\n     * It will not be possible to call the functions with the `onlyOwner`\n     * modifier anymore.\n     * @notice Renouncing ownership will leave the contract without an owner,\n     * thereby removing any functionality that is only available to the owner.\n     */\n    function renounceOwnership() public onlyOwner {\n        emit OwnershipTransferred(_owner, address(0));\n        _owner = address(0);\n    }\n\n    /**\n     * @dev Allows the current owner to transfer control of the contract to a newOwner.\n     * @param newOwner The address to transfer ownership to.\n     */\n    function transferOwnership(address newOwner) public onlyOwner {\n        _transferOwnership(newOwner);\n    }\n\n    /**\n     * @dev Transfers control of the contract to a newOwner.\n     * @param newOwner The address to transfer ownership to.\n     */\n    function _transferOwnership(address newOwner) internal {\n        require(newOwner != address(0));\n        emit OwnershipTransferred(_owner, newOwner);\n        _owner = newOwner;\n    }\n}\n\n\n\ncontract Withdrawable is Ownable {\n    using SafeERC20 for IERC20;\n    address constant ETHER = address(0);\n\n    event LogWithdraw(\n        address indexed _from,\n        address indexed _assetAddress,\n        uint amount\n    );\n\n    /**\n     * @dev Withdraw asset.\n     * @param _assetAddress Asset to be withdrawn.\n     */\n    function withdraw(address _assetAddress) public onlyOwner {\n        uint assetBalance;\n        if (_assetAddress == ETHER) {\n            address self = address(this); // workaround for a possible solidity bug\n            assetBalance = self.balance;\n            msg.sender.transfer(assetBalance);\n        } else {\n            assetBalance = IERC20(_assetAddress).balanceOf(address(this));\n            IERC20(_assetAddress).safeTransfer(msg.sender, assetBalance);\n        }\n        emit LogWithdraw(msg.sender, _assetAddress, assetBalance);\n    }\n\n}\n\ncontract FlashLoanReceiverBase is IFlashLoanReceiver, Withdrawable {\n\n    using SafeERC20 for IERC20;\n    using SafeMath for uint256;\n\n    // See https://developers.aave.com/#the-lendingpooladdressesprovider. This address should not change once deployed.\n    // The below address is for mainnet lending pool address provider - 0x24a42fD28C976A61Df5D00D0599C34c4f90748c8\n    // The Kovan lending pool address provider - 0x506B0B2CF20FAA8f38a4E2B524EE43e1f4458Cc5\n    ILendingPoolAddressesProvider public constant addressesProvider = ILendingPoolAddressesProvider(0x506B0B2CF20FAA8f38a4E2B524EE43e1f4458Cc5);\n\n    function () external payable { }\n\n    function transferFundsBackToPoolInternal(address _reserve, uint256 _amount) internal {\n        address payable core = addressesProvider.getLendingPoolCore();\n        transferInternal(core, _reserve, _amount);\n    }\n\n    function transferInternal(address payable _destination, address _reserve, uint256 _amount) internal {\n        if(_reserve == EthAddressLib.ethAddress()) {\n            //solium-disable-next-line\n            _destination.call.value(_amount)(\"\");\n            return;\n        }\n        IERC20(_reserve).safeTransfer(_destination, _amount);\n    }\n\n    function getBalanceInternal(address _target, address _reserve) internal view returns(uint256) {\n        if(_reserve == EthAddressLib.ethAddress()) {\n            return _target.balance;\n        }\n        return IERC20(_reserve).balanceOf(_target);\n    }\n}\n\ncontract UniswapExchangeInterface {\n    // Address of ERC20 token sold on this exchange\n    function tokenAddress() external view returns (address token);\n    // Address of Uniswap Factory\n    function factoryAddress() external view returns (address factory);\n    // Provide Liquidity\n    function addLiquidity(uint256 min_liquidity, uint256 max_tokens, uint256 deadline) external payable returns (uint256);\n    function removeLiquidity(uint256 amount, uint256 min_eth, uint256 min_tokens, uint256 deadline) external returns (uint256, uint256);\n    // Get Prices\n    function getEthToTokenInputPrice(uint256 eth_sold) external view returns (uint256 tokens_bought);\n    function getEthToTokenOutputPrice(uint256 tokens_bought) external view returns (uint256 eth_sold);\n    function getTokenToEthInputPrice(uint256 tokens_sold) external view returns (uint256 eth_bought);\n    function getTokenToEthOutputPrice(uint256 eth_bought) external view returns (uint256 tokens_sold);\n    // Trade ETH to ERC20\n    // @notice Convert ETH to Tokens.\n    // @dev User specifies exact input (msg.value) and minimum output.\n    // @param min_tokens Minimum Tokens bought.\n    // @param deadline Time after which this transaction can no longer be executed.\n    // @return Amount of Tokens bought.\n    function ethToTokenSwapInput(uint256 min_tokens, uint256 deadline) external payable returns (uint256  tokens_bought);\n    function ethToTokenTransferInput(uint256 min_tokens, uint256 deadline, address recipient) external payable returns (uint256  tokens_bought);\n    function ethToTokenSwapOutput(uint256 tokens_bought, uint256 deadline) external payable returns (uint256  eth_sold);\n    function ethToTokenTransferOutput(uint256 tokens_bought, uint256 deadline, address recipient) external payable returns (uint256  eth_sold);\n    // Trade ERC20 to ETH\n    function tokenToEthSwapInput(uint256 tokens_sold, uint256 min_eth, uint256 deadline) external returns (uint256  eth_bought);\n    function tokenToEthTransferInput(uint256 tokens_sold, uint256 min_eth, uint256 deadline, address recipient) external returns (uint256  eth_bought);\n    function tokenToEthSwapOutput(uint256 eth_bought, uint256 max_tokens, uint256 deadline) external returns (uint256  tokens_sold);\n    function tokenToEthTransferOutput(uint256 eth_bought, uint256 max_tokens, uint256 deadline, address recipient) external returns (uint256  tokens_sold);\n    // Trade ERC20 to ERC20\n    function tokenToTokenSwapInput(uint256 tokens_sold, uint256 min_tokens_bought, uint256 min_eth_bought, uint256 deadline, address token_addr) external returns (uint256  tokens_bought);\n    function tokenToTokenTransferInput(uint256 tokens_sold, uint256 min_tokens_bought, uint256 min_eth_bought, uint256 deadline, address recipient, address token_addr) external returns (uint256  tokens_bought);\n    function tokenToTokenSwapOutput(uint256 tokens_bought, uint256 max_tokens_sold, uint256 max_eth_sold, uint256 deadline, address token_addr) external returns (uint256  tokens_sold);\n    function tokenToTokenTransferOutput(uint256 tokens_bought, uint256 max_tokens_sold, uint256 max_eth_sold, uint256 deadline, address recipient, address token_addr) external returns (uint256  tokens_sold);\n    // Trade ERC20 to Custom Pool\n    function tokenToExchangeSwapInput(uint256 tokens_sold, uint256 min_tokens_bought, uint256 min_eth_bought, uint256 deadline, address exchange_addr) external returns (uint256  tokens_bought);\n    function tokenToExchangeTransferInput(uint256 tokens_sold, uint256 min_tokens_bought, uint256 min_eth_bought, uint256 deadline, address recipient, address exchange_addr) external returns (uint256  tokens_bought);\n    function tokenToExchangeSwapOutput(uint256 tokens_bought, uint256 max_tokens_sold, uint256 max_eth_sold, uint256 deadline, address exchange_addr) external returns (uint256  tokens_sold);\n    function tokenToExchangeTransferOutput(uint256 tokens_bought, uint256 max_tokens_sold, uint256 max_eth_sold, uint256 deadline, address recipient, address exchange_addr) external returns (uint256  tokens_sold);\n    // ERC20 comaptibility for liquidity tokens\n    bytes32 public name;\n    bytes32 public symbol;\n    uint256 public decimals;\n    function transfer(address _to, uint256 _value) external returns (bool);\n    function transferFrom(address _from, address _to, uint256 value) external returns (bool);\n    function approve(address _spender, uint256 _value) external returns (bool);\n    function allowance(address _owner, address _spender) external view returns (uint256);\n    function balanceOf(address _owner) external view returns (uint256);\n    function totalSupply() external view returns (uint256);\n    // Never use\n    function setup(address token_addr) external;\n}\n/*\n//FlashLoanReceiverBase.sol also has it.\ninterface ERC20 {\n    function totalSupply() public view returns (uint supply);\n    function balanceOf(address _owner) public view returns (uint balance);\n    function transfer(address _to, uint _value) public returns (bool success);\n    function transferFrom(address _from, address _to, uint _value) public returns (bool success);\n    function approve(address _spender, uint _value) public returns (bool success);\n    function allowance(address _owner, address _spender) public view returns (uint remaining);\n    function decimals() public view returns(uint digits);\n    event Approval(address indexed _owner, address indexed _spender, uint _value);\n}\n*/\n/*\n//this is old 0.4 solc\ninterface KyberNetworkProxyInterface {\n    function maxGasPrice() public view returns(uint);\n    function getUserCapInWei(address user) public view returns(uint);\n    function getUserCapInTokenWei(address user, ERC20 token) public view returns(uint);\n    function enabled() public view returns(bool);\n    function info(bytes32 id) public view returns(uint);\n    function getExpectedRate(ERC20 src, ERC20 dest, uint srcQty) public view\n        returns (uint expectedRate, uint slippageRate);\n    function tradeWithHint(ERC20 src, uint srcAmount, ERC20 dest, address destAddress, uint maxDestAmount,\n        uint minConversionRate, address walletId, bytes hint) public payable returns(uint);\n    function swapEtherToToken(ERC20 token, uint minRate) public payable returns (uint);\n    function swapTokenToEther(ERC20 token, uint tokenQty, uint minRate) public returns (uint);\n}\n*/\n// this is for solc 0.5 - https://github.com/0xFutures/protocol/blob/master/contracts/kyber/KyberNetworkProxyInterface.sol\ninterface KyberNetworkProxyInterface {\n    function maxGasPrice() external view returns(uint);\n    function getUserCapInWei(address user) external view returns(uint);\n    function getUserCapInTokenWei(address user, address token) external view returns(uint);\n    function enabled() external view returns(bool);\n    function info(bytes32 id) external view returns(uint);\n\n    function getExpectedRate(address src, address dest, uint srcQty) external view\n        returns (uint expectedRate, uint slippageRate);\n\n    function tradeWithHint(\n        address src,\n        uint srcAmount,\n        address dest,\n        address destAddress,\n        uint maxDestAmount,\n        uint minConversionRate,\n        address walletId,\n        bytes calldata hint\n    ) external payable returns(uint);\n}\n\ninterface ILendingPool {\n  function addressesProvider () external view returns ( address );\n  function deposit ( address _reserve, uint256 _amount, uint16 _referralCode ) external payable;\n  function redeemUnderlying ( address _reserve, address _user, uint256 _amount ) external;\n  function borrow ( address _reserve, uint256 _amount, uint256 _interestRateMode, uint16 _referralCode ) external;\n  function repay ( address _reserve, uint256 _amount, address _onBehalfOf ) external payable;\n  function swapBorrowRateMode ( address _reserve ) external;\n  function rebalanceFixedBorrowRate ( address _reserve, address _user ) external;\n  function setUserUseReserveAsCollateral ( address _reserve, bool _useAsCollateral ) external;\n  function liquidationCall ( address _collateral, address _reserve, address _user, uint256 _purchaseAmount, bool _receiveAToken ) external payable;\n  function flashLoan ( address _receiver, address _reserve, uint256 _amount, bytes calldata _params ) external;\n  function getReserveConfigurationData ( address _reserve ) external view returns ( uint256 ltv, uint256 liquidationThreshold, uint256 liquidationDiscount, address interestRateStrategyAddress, bool usageAsCollateralEnabled, bool borrowingEnabled, bool fixedBorrowRateEnabled, bool isActive );\n  function getReserveData ( address _reserve ) external view returns ( uint256 totalLiquidity, uint256 availableLiquidity, uint256 totalBorrowsFixed, uint256 totalBorrowsVariable, uint256 liquidityRate, uint256 variableBorrowRate, uint256 fixedBorrowRate, uint256 averageFixedBorrowRate, uint256 utilizationRate, uint256 liquidityIndex, uint256 variableBorrowIndex, address aTokenAddress, uint40 lastUpdateTimestamp );\n  function getUserAccountData ( address _user ) external view returns ( uint256 totalLiquidityETH, uint256 totalCollateralETH, uint256 totalBorrowsETH, uint256 availableBorrowsETH, uint256 currentLiquidationThreshold, uint256 ltv, uint256 healthFactor );\n  function getUserReserveData ( address _reserve, address _user ) external view returns ( uint256 currentATokenBalance, uint256 currentUnderlyingBalance, uint256 currentBorrowBalance, uint256 principalBorrowBalance, uint256 borrowRateMode, uint256 borrowRate, uint256 liquidityRate, uint256 originationFee, uint256 variableBorrowIndex, uint256 lastUpdateTimestamp, bool usageAsCollateralEnabled );\n  function getReserves () external view;\n}\n\n\ncontract ArbSlippageTrading is FlashLoanReceiverBase {\n\n\n  // ECR20 SC initiation with param()\n  // do we need to set this to 0xEeeeeEeeeEeEeeEeEeEeeEEEeeeeEeeeeeeeEEeE ?\n  IERC20 constant internal ETH_TOKEN_ADDRESS = IERC20(0x00eeeeeeeeeeeeeeeeeeeeeeeeeeeeeeeeeeeeeeee);\n  // kyber contract initiation with param\n  // 0x818E6FECD516Ecc3849DAf6845e3EC868087B755 is KyberNetworkProxy address in mainnet. original\n  // 0x692f391bCc85cefCe8C237C01e1f636BbD70EA4D is KyberNetworkProxy address in Kovan\n  // https://developer.kyber.network/docs/KovanEnvGuide/\n  KyberNetworkProxyInterface public proxy = KyberNetworkProxyInterface(0x692f391bCc85cefCe8C237C01e1f636BbD70EA4D);\n  // 0x89d24a6b4ccb1b6faa2625fe562bdd9a23260359 is mainnet SAI address, origianl\n  // 0x6B175474E89094C44Da98b954EedeAC495271d0F is DAI addr in mainnet\n  // 0xC4375B7De8af5a38a93548eb8453a498222C4fF2 is DAI addr in Kovan\n  address daiAddress = 0xC4375B7De8af5a38a93548eb8453a498222C4fF2;\n  // string literal state variable\n  bytes PERM_HINT = \"PERM\";\n\n  address arbOwner;\n\n  constructor () public {\n    arbOwner = msg.sender;\n  }\n\n  modifier onlyOwner () {\n    require(msg.sender == arbOwner);\n    _;\n  }\n\n/*\n  function swapEtherToToken (\n     KyberNetworkProxyInterface _kyberNetworkProxy,\n     ERC20 token,\n     address destAddress\n  )\n      internal\n  {\n    //the msg.value is a number of wei sent with the message\n    uint minRate;\n    (, minRte) = _kyberNetworkProxy.getExpectedRate(ETH_TOKEN_ADDRESS, token, msg.value);\n    //will send back tokens to this contract's address\n    uint destAmount = _kyberNetworkProxy.swapEtherToToken.value(msg.value)(token, minRate);\n    //send received tokens to destination address\n    require(token.transfer(destAddress, destAmount));\n  }\n*/\n\n  // DAI to ETH\n  function swapTokenToEther1 (IERC20 token, uint tokenQty) internal returns (uint){\n    //uint minRate = 1;\n    // Check that the token transferFrom has succeeded\n    token.transferFrom(msg.sender, address(this), tokenQty);\n\n    // Mitigate ERC20 Approve front-running attack, by initially setting\n\n    // allowance to 0\n    token.approve(address(proxy), 0);\n    // Approve tokens so network can take them during the swap\n    token.approve(address(proxy), tokenQty);\n\n    // 1. trade DAI to ETH.\n    // Makes a trade between DAI(ERC20 token) and ETH(dest token) and send ETH(dest tokens) to destAddress(this contract),\n    // with an additional hint parameter for exclusion of permissionless reserves.\n    // https://developer.kyber.network/docs/API_ABI-KyberNetworkProxy/\n    // cant we use _kyberNetworkProxy instead of proxy????\n    uint destAmount = proxy.tradeWithHint(\n                                              daiAddress, //src\n                                              tokenQty, //amount of src\n                                              0xEeeeeEeeeEeEeeEeEeEeeEEEeeeeEeeeeeeeEEeE, //dest token\n                                              address(this), //dest addr\n                                              8000000000000000000000000000000000000000000000000000000000000000, //max dest amount\n                                              0, //min conversion rate\n                                              0x0000000000000000000000000000000000000004, //wallet addr to send part of the fee to\n                                              PERM_HINT //for filtering permissionless reserves\n                                         );\n    // Returns amount of actual destination tokens\n    return destAmount;\n  }\n\n\n  //DAI to ETH -> ETH to DAI\n  function kyberToUniSwapArb(\n      address fromAddress, // DAI asset addr, ERC20 asset(SAI, DAI...) sc address\n      address uniSwapContract, // Uniswap DAI exchange addr\n      uint theAmount // DAI asset amount, amount of token I want to trade\n  )\n      public payable onlyOwner returns (bool)\n  {\n    // trade DAI to ETH\n    // ethBack is amoutn of ETH sent to this contract\n    IERC20 address1 = IERC20(fromAddress);\n    uint ethBack = swapTokenToEther1(address1 , theAmount);\n\n    // trade ETH to DAI(buy DAI with ETH)\n    // 1 is min token(Minimum ERC20 tokens bought), block.timestamp is Transaction deadline\n    // TODO: only 1 ETH????\n    // https://github.com/Uniswap/contracts-vyper/blob/master/contracts/uniswap_exchange.vy\n    UniswapExchangeInterface usi = UniswapExchangeInterface(uniSwapContract);\n    usi.ethToTokenSwapInput.value(ethBack)(1, block.timestamp);\n    return true;\n  }\n\n  //??\n  function uniswapToKyberArb(\n      address fromAddress, // DAI asset addr\n      address uniSwapTokenAddress, // Uniswap DAI exchange addr\n      uint theAmount // DAI asset amount\n  )\n      public payable onlyOwner returns (bool)\n  {\n    UniswapExchangeInterface usi = UniswapExchangeInterface(uniSwapTokenAddress);\n    // theAmount: Amount of ERC20 tokens sold\n    // 1: Minimum ETH bought\n    // block.timestamp: Transaction deadline\n    // return: Amount of ETH bought\n    uint ethBack = usi.tokenToEthSwapInput(theAmount, 1, block.timestamp); // DAI -> ETH\n\n    IERC20 address1 = IERC20(fromAddress);\n    //uint tokenAmt = swapTokenToEther1(address1 , ethBack);\n    swapTokenToEther1(address1 , ethBack);\n\n    return true;\n  }\n\n  // this means, we can send token to this contract\n  function () external payable  {\n\n  }\n\n  function withdrawETHAndTokens() onlyOwner public {\n    msg.sender.send(address(this).balance);\n    IERC20 daiToken = IERC20(daiAddress);\n    uint256 currentTokenBalance = daiToken.balanceOf(address(this));\n    daiToken.transfer(msg.sender, currentTokenBalance);\n  }\n\n\n\n  function executeOperation(\n    address _reserve,\n    uint256 _loanedamount,\n    uint256 _fee,\n    bytes calldata _params\n  )\n    external\n  {\n    require(_loanedamount <= getBalanceInternal(address(this), _reserve), \"Invalid balance, was the flashLoan successful?\");\n\n    /*\n    // https://hackmd.io/OlNJB9a-QJCn8t9BfpOOfg?view\n    // 0x4C38cDC08f1260F5c4b21685654393BB1e66a858 DAI(ERC20 asset) addr on Kovan\n    address fromAddress = address(0x4C38cDC08f1260F5c4b21685654393BB1e66a858);\n    // 0x8779C708e2C3b1067de9Cd63698E4334866c691C is UniSwap DAI Exchange addr on Kovan\n    address uniSwapTokenAddress = address(0x8779C708e2C3b1067de9Cd63698E4334866c691C);\n    // amount of token I want to trade\n    // uint theAmount = 1 ether;\n    //kyberToUniSwapArb(fromAddress,uniSwapTokenAddress,theAmount);\n    kyberToUniSwapArb(fromAddress,uniSwapTokenAddress,_loanedamount);\n    */\n\n    // Time to transfer the funds back\n    uint totalDebt = _loanedamount.add(_fee);\n    transferFundsBackToPoolInternal(_reserve, totalDebt);\n  }\n\n  function flashloan() public onlyOwner {\n    bytes memory data = \"\";\n    uint amount = 0.1 ether;\n    // 0xFf795577d9AC8bD7D90Ee22b6C1703490b6512FD is Kovan DAI address\n    // 0x6B175474E89094C44Da98b954EedeAC495271d0F is mainnet DAI address\n    // 0xEeeeeEeeeEeEeeEeEeEeeEEEeeeeEeeeeeeeEEeE is Kovan ETH address\n    address asset = address(0xFf795577d9AC8bD7D90Ee22b6C1703490b6512FD);\n\n    ILendingPool lendingPool = ILendingPool(addressesProvider.getLendingPool());\n    lendingPool.flashLoan(address(this), asset, amount, data);\n  }\n\n}\n",
  "sourcePath": "/Users/chris/Documents/work/study/upperbrain_git/arb-slippage/contracts/ArbSlippageTrading.sol",
  "compiler": {
    "name": "solc",
    "version": "0.5.16+commit.9c3226ce.Emscripten.clang"
  },
  "schemaVersion": "3.0.23",
  "updatedAt": "2020-03-25T17:29:37.585Z",
  "networkType": "ethereum",
  "devdoc": {
    "methods": {
      "isOwner()": {
        "return": "true if `msg.sender` is the owner of the contract."
      },
      "owner()": {
        "return": "the address of the owner."
      },
      "renounceOwnership()": {
        "details": "Allows the current owner to relinquish control of the contract. It will not be possible to call the functions with the `onlyOwner` modifier anymore."
      },
      "transferOwnership(address)": {
        "details": "Allows the current owner to transfer control of the contract to a newOwner.",
        "params": {
          "newOwner": "The address to transfer ownership to."
        }
      },
      "withdraw(address)": {
        "details": "Withdraw asset.",
        "params": {
          "_assetAddress": "Asset to be withdrawn."
        }
      }
    }
  },
  "userdoc": {
    "methods": {
      "renounceOwnership()": {
        "notice": "Renouncing ownership will leave the contract without an owner, thereby removing any functionality that is only available to the owner."
      }
    }
  }
}