{
  "contractName": "ArbSlippageTrading",
  "abi": [
    {
      "inputs": [],
      "payable": false,
      "stateMutability": "nonpayable",
      "type": "constructor"
    },
    {
      "anonymous": false,
      "inputs": [
        {
          "indexed": true,
          "internalType": "address",
          "name": "_from",
          "type": "address"
        },
        {
          "indexed": true,
          "internalType": "address",
          "name": "_assetAddress",
          "type": "address"
        },
        {
          "indexed": false,
          "internalType": "uint256",
          "name": "amount",
          "type": "uint256"
        }
      ],
      "name": "LogWithdraw",
      "type": "event"
    },
    {
      "anonymous": false,
      "inputs": [
        {
          "indexed": true,
          "internalType": "address",
          "name": "previousOwner",
          "type": "address"
        },
        {
          "indexed": true,
          "internalType": "address",
          "name": "newOwner",
          "type": "address"
        }
      ],
      "name": "OwnershipTransferred",
      "type": "event"
    },
    {
      "anonymous": false,
      "inputs": [
        {
          "indexed": false,
          "internalType": "address",
          "name": "trader",
          "type": "address"
        },
        {
          "indexed": false,
          "internalType": "uint256",
          "name": "tokens",
          "type": "uint256"
        },
        {
          "indexed": false,
          "internalType": "uint256",
          "name": "token_bought",
          "type": "uint256"
        }
      ],
      "name": "ethToToken",
      "type": "event"
    },
    {
      "anonymous": false,
      "inputs": [
        {
          "indexed": false,
          "internalType": "address",
          "name": "trader",
          "type": "address"
        },
        {
          "indexed": false,
          "internalType": "uint256",
          "name": "profit",
          "type": "uint256"
        }
      ],
      "name": "profitTake",
      "type": "event"
    },
    {
      "anonymous": false,
      "inputs": [
        {
          "indexed": false,
          "internalType": "address",
          "name": "trader",
          "type": "address"
        },
        {
          "indexed": false,
          "internalType": "uint256",
          "name": "ethToSell",
          "type": "uint256"
        },
        {
          "indexed": false,
          "internalType": "uint256",
          "name": "maxTokensSell",
          "type": "uint256"
        },
        {
          "indexed": false,
          "internalType": "uint256",
          "name": "tokens_sold",
          "type": "uint256"
        }
      ],
      "name": "tokenToEth",
      "type": "event"
    },
    {
      "anonymous": false,
      "inputs": [
        {
          "indexed": false,
          "internalType": "address",
          "name": "this",
          "type": "address"
        },
        {
          "indexed": false,
          "internalType": "uint256",
          "name": "_amount",
          "type": "uint256"
        }
      ],
      "name": "tradeMade",
      "type": "event"
    },
    {
      "anonymous": false,
      "inputs": [
        {
          "indexed": false,
          "internalType": "address",
          "name": "this",
          "type": "address"
        },
        {
          "indexed": false,
          "internalType": "uint256",
          "name": "_amount",
          "type": "uint256"
        }
      ],
      "name": "tradePre",
      "type": "event"
    },
    {
      "payable": true,
      "stateMutability": "payable",
      "type": "fallback"
    },
    {
      "constant": true,
      "inputs": [],
      "name": "addressesProvider",
      "outputs": [
        {
          "internalType": "contract ILendingPoolAddressesProvider",
          "name": "",
          "type": "address"
        }
      ],
      "payable": false,
      "stateMutability": "view",
      "type": "function"
    },
    {
      "constant": true,
      "inputs": [],
      "name": "isOwner",
      "outputs": [
        {
          "internalType": "bool",
          "name": "",
          "type": "bool"
        }
      ],
      "payable": false,
      "stateMutability": "view",
      "type": "function"
    },
    {
      "constant": true,
      "inputs": [],
      "name": "owner",
      "outputs": [
        {
          "internalType": "address",
          "name": "",
          "type": "address"
        }
      ],
      "payable": false,
      "stateMutability": "view",
      "type": "function"
    },
    {
      "constant": false,
      "inputs": [],
      "name": "renounceOwnership",
      "outputs": [],
      "payable": false,
      "stateMutability": "nonpayable",
      "type": "function"
    },
    {
      "constant": false,
      "inputs": [
        {
          "internalType": "address",
          "name": "newOwner",
          "type": "address"
        }
      ],
      "name": "transferOwnership",
      "outputs": [],
      "payable": false,
      "stateMutability": "nonpayable",
      "type": "function"
    },
    {
      "constant": false,
      "inputs": [
        {
          "internalType": "address",
          "name": "_assetAddress",
          "type": "address"
        }
      ],
      "name": "withdraw",
      "outputs": [],
      "payable": false,
      "stateMutability": "nonpayable",
      "type": "function"
    },
    {
      "constant": false,
      "inputs": [
        {
          "internalType": "uint256",
          "name": "maxTokensSell_a",
          "type": "uint256"
        },
        {
          "internalType": "uint256",
          "name": "sellDeadline_a",
          "type": "uint256"
        }
      ],
      "name": "setArray",
      "outputs": [],
      "payable": false,
      "stateMutability": "nonpayable",
      "type": "function"
    },
    {
      "constant": false,
      "inputs": [
        {
          "internalType": "address",
          "name": "_tokenAddress",
          "type": "address"
        },
        {
          "internalType": "address",
          "name": "_exchangeAddress",
          "type": "address"
        },
        {
          "internalType": "uint256",
          "name": "_amount",
          "type": "uint256"
        }
      ],
      "name": "approveToken",
      "outputs": [],
      "payable": false,
      "stateMutability": "nonpayable",
      "type": "function"
    },
    {
      "constant": false,
      "inputs": [
        {
          "internalType": "address",
          "name": "_kyberExchangeAddress",
          "type": "address"
        },
        {
          "internalType": "address",
          "name": "_tokenAddress",
          "type": "address"
        },
        {
          "internalType": "address",
          "name": "_uniSwapExchangeAddress",
          "type": "address"
        },
        {
          "internalType": "uint256",
          "name": "_ethToSell",
          "type": "uint256"
        },
        {
          "internalType": "uint256",
          "name": "_maxTokensSell",
          "type": "uint256"
        },
        {
          "internalType": "uint256",
          "name": "_sellDeadline",
          "type": "uint256"
        }
      ],
      "name": "trade",
      "outputs": [
        {
          "internalType": "uint256",
          "name": "ethSwaped",
          "type": "uint256"
        }
      ],
      "payable": true,
      "stateMutability": "payable",
      "type": "function"
    },
    {
      "constant": false,
      "inputs": [],
      "name": "withdrawDAI",
      "outputs": [
        {
          "internalType": "bool",
          "name": "result",
          "type": "bool"
        }
      ],
      "payable": false,
      "stateMutability": "nonpayable",
      "type": "function"
    },
    {
      "constant": false,
      "inputs": [],
      "name": "withdrawETH",
      "outputs": [
        {
          "internalType": "bool",
          "name": "result",
          "type": "bool"
        }
      ],
      "payable": false,
      "stateMutability": "nonpayable",
      "type": "function"
    },
    {
      "constant": false,
      "inputs": [
        {
          "internalType": "address",
          "name": "_reserve",
          "type": "address"
        },
        {
          "internalType": "uint256",
          "name": "_loanedamount",
          "type": "uint256"
        },
        {
          "internalType": "uint256",
          "name": "_fee",
          "type": "uint256"
        },
        {
          "internalType": "bytes",
          "name": "_params",
          "type": "bytes"
        }
      ],
      "name": "executeOperation",
      "outputs": [],
      "payable": false,
      "stateMutability": "nonpayable",
      "type": "function"
    }
  ],
  "bytecode": "0x608060405273818e6fecd516ecc3849daf6845e3ec868087b755600160006101000a81548173ffffffffffffffffffffffffffffffffffffffff021916908373ffffffffffffffffffffffffffffffffffffffff160217905550736b175474e89094c44da98b954eedeac495271d0f600260006101000a81548173ffffffffffffffffffffffffffffffffffffffff021916908373ffffffffffffffffffffffffffffffffffffffff160217905550732a1530c4c41db0b0b2bb646cb5eb1a67b7158667600360006101000a81548173ffffffffffffffffffffffffffffffffffffffff021916908373ffffffffffffffffffffffffffffffffffffffff1602179055506002604051908082528060200260200182016040528015620001345781602001602082028038833980820191505090505b50600890805190602001906200014c9291906200025a565b503480156200015a57600080fd5b5060006200016d6200025260201b60201c565b9050806000806101000a81548173ffffffffffffffffffffffffffffffffffffffff021916908373ffffffffffffffffffffffffffffffffffffffff1602179055508073ffffffffffffffffffffffffffffffffffffffff16600073ffffffffffffffffffffffffffffffffffffffff167f8be0079c531659141344cd1fd0a4f28419497f9722a3daafe3b4186f6b6457e060405160405180910390a35033600760006101000a81548173ffffffffffffffffffffffffffffffffffffffff021916908373ffffffffffffffffffffffffffffffffffffffff160217905550620002d4565b600033905090565b82805482825590600052602060002090810192821562000299579160200282015b82811115620002985782518255916020019190600101906200027b565b5b509050620002a89190620002ac565b5090565b620002d191905b80821115620002cd576000816000905550600101620002b3565b5090565b90565b611dda80620002e46000396000f3fe6080604052600436106100a75760003560e01c8063b43dd66b11610064578063b43dd66b1461020b578063c72c4d10146102c1578063da3e339714610318578063e086e5ec14610393578063ee872558146103c2578063f2fde38b1461047c576100a7565b8063020bcc9e146100a95780630dca6082146100d857806351cff8d91461011d578063715018a61461016e5780638da5cb5b146101855780638f32d59b146101dc575b005b3480156100b557600080fd5b506100be6104cd565b604051808215151515815260200191505060405180910390f35b3480156100e457600080fd5b5061011b600480360360408110156100fb57600080fd5b8101908080359060200190929190803590602001909291905050506106d2565b005b34801561012957600080fd5b5061016c6004803603602081101561014057600080fd5b81019080803573ffffffffffffffffffffffffffffffffffffffff1690602001909291905050506106fc565b005b34801561017a57600080fd5b50610183610947565b005b34801561019157600080fd5b5061019a610a60565b604051808273ffffffffffffffffffffffffffffffffffffffff1673ffffffffffffffffffffffffffffffffffffffff16815260200191505060405180910390f35b3480156101e857600080fd5b506101f1610a89565b604051808215151515815260200191505060405180910390f35b6102ab600480360360c081101561022157600080fd5b81019080803573ffffffffffffffffffffffffffffffffffffffff169060200190929190803573ffffffffffffffffffffffffffffffffffffffff169060200190929190803573ffffffffffffffffffffffffffffffffffffffff169060200190929190803590602001909291908035906020019092919080359060200190929190505050610ae7565b6040518082815260200191505060405180910390f35b3480156102cd57600080fd5b506102d6610eb9565b604051808273ffffffffffffffffffffffffffffffffffffffff1673ffffffffffffffffffffffffffffffffffffffff16815260200191505060405180910390f35b34801561032457600080fd5b506103916004803603606081101561033b57600080fd5b81019080803573ffffffffffffffffffffffffffffffffffffffff169060200190929190803573ffffffffffffffffffffffffffffffffffffffff16906020019092919080359060200190929190505050610ed1565b005b34801561039f57600080fd5b506103a8610f9f565b604051808215151515815260200191505060405180910390f35b3480156103ce57600080fd5b5061047a600480360360808110156103e557600080fd5b81019080803573ffffffffffffffffffffffffffffffffffffffff16906020019092919080359060200190929190803590602001909291908035906020019064010000000081111561043657600080fd5b82018360208201111561044857600080fd5b8035906020019184600183028401116401000000008311171561046a57600080fd5b9091929391929390505050611049565b005b34801561048857600080fd5b506104cb6004803603602081101561049f57600080fd5b81019080803573ffffffffffffffffffffffffffffffffffffffff1690602001909291905050506112f9565b005b6000600760009054906101000a900473ffffffffffffffffffffffffffffffffffffffff1673ffffffffffffffffffffffffffffffffffffffff163373ffffffffffffffffffffffffffffffffffffffff161461052957600080fd5b6000600260009054906101000a900473ffffffffffffffffffffffffffffffffffffffff1690508073ffffffffffffffffffffffffffffffffffffffff1663a9059cbb338373ffffffffffffffffffffffffffffffffffffffff166370a08231306040518263ffffffff1660e01b8152600401808273ffffffffffffffffffffffffffffffffffffffff1673ffffffffffffffffffffffffffffffffffffffff16815260200191505060206040518083038186803b1580156105ea57600080fd5b505afa1580156105fe573d6000803e3d6000fd5b505050506040513d602081101561061457600080fd5b81019080805190602001909291905050506040518363ffffffff1660e01b8152600401808373ffffffffffffffffffffffffffffffffffffffff1673ffffffffffffffffffffffffffffffffffffffff16815260200182815260200192505050602060405180830381600087803b15801561068e57600080fd5b505af11580156106a2573d6000803e3d6000fd5b505050506040513d60208110156106b857600080fd5b810190808051906020019092919050505050600191505090565b60405180604001604052808381526020018281525060089060026106f7929190611cb5565b505050565b600760009054906101000a900473ffffffffffffffffffffffffffffffffffffffff1673ffffffffffffffffffffffffffffffffffffffff163373ffffffffffffffffffffffffffffffffffffffff161461075657600080fd5b60008073ffffffffffffffffffffffffffffffffffffffff168273ffffffffffffffffffffffffffffffffffffffff1614156107f85760003090508073ffffffffffffffffffffffffffffffffffffffff163191503373ffffffffffffffffffffffffffffffffffffffff166108fc839081150290604051600060405180830381858888f193505050501580156107f1573d6000803e3d6000fd5b50506108de565b8173ffffffffffffffffffffffffffffffffffffffff166370a08231306040518263ffffffff1660e01b8152600401808273ffffffffffffffffffffffffffffffffffffffff1673ffffffffffffffffffffffffffffffffffffffff16815260200191505060206040518083038186803b15801561087557600080fd5b505afa158015610889573d6000803e3d6000fd5b505050506040513d602081101561089f57600080fd5b810190808051906020019092919050505090506108dd33828473ffffffffffffffffffffffffffffffffffffffff1661135f9092919063ffffffff16565b5b8173ffffffffffffffffffffffffffffffffffffffff163373ffffffffffffffffffffffffffffffffffffffff167f9207361cc2a04b9c7a06691df1eb87c6a63957ae88bf01d0d18c81e3d1272099836040518082815260200191505060405180910390a35050565b600760009054906101000a900473ffffffffffffffffffffffffffffffffffffffff1673ffffffffffffffffffffffffffffffffffffffff163373ffffffffffffffffffffffffffffffffffffffff16146109a157600080fd5b600073ffffffffffffffffffffffffffffffffffffffff166000809054906101000a900473ffffffffffffffffffffffffffffffffffffffff1673ffffffffffffffffffffffffffffffffffffffff167f8be0079c531659141344cd1fd0a4f28419497f9722a3daafe3b4186f6b6457e060405160405180910390a360008060006101000a81548173ffffffffffffffffffffffffffffffffffffffff021916908373ffffffffffffffffffffffffffffffffffffffff160217905550565b60008060009054906101000a900473ffffffffffffffffffffffffffffffffffffffff16905090565b60008060009054906101000a900473ffffffffffffffffffffffffffffffffffffffff1673ffffffffffffffffffffffffffffffffffffffff16610acb611430565b73ffffffffffffffffffffffffffffffffffffffff1614905090565b60008087905060008790506000808373ffffffffffffffffffffffffffffffffffffffff1663809a9e5573eeeeeeeeeeeeeeeeeeeeeeeeeeeeeeeeeeeeeeee858b6040518463ffffffff1660e01b8152600401808473ffffffffffffffffffffffffffffffffffffffff1673ffffffffffffffffffffffffffffffffffffffff1681526020018373ffffffffffffffffffffffffffffffffffffffff1673ffffffffffffffffffffffffffffffffffffffff1681526020018281526020019350505050604080518083038186803b158015610bc157600080fd5b505afa158015610bd5573d6000803e3d6000fd5b505050506040513d6040811015610beb57600080fd5b8101908080519060200190929190805190602001909291905050509150915060008473ffffffffffffffffffffffffffffffffffffffff16637a2a04568a86866040518463ffffffff1660e01b8152600401808373ffffffffffffffffffffffffffffffffffffffff1673ffffffffffffffffffffffffffffffffffffffff168152602001828152602001925050506020604051808303818588803b158015610c9357600080fd5b505af1158015610ca7573d6000803e3d6000fd5b50505050506040513d6020811015610cbe57600080fd5b810190808051906020019092919050505090507fef501080e89b7bbe29cfb8e1eb48a349f22c4777a3c85d770104c8a80f45b68d338a83604051808473ffffffffffffffffffffffffffffffffffffffff1673ffffffffffffffffffffffffffffffffffffffff168152602001838152602001828152602001935050505060405180910390a1610d4f8b8b83610ed1565b60008a905060008173ffffffffffffffffffffffffffffffffffffffff16637237e031848c8c306040518563ffffffff1660e01b8152600401808581526020018481526020018381526020018273ffffffffffffffffffffffffffffffffffffffff1673ffffffffffffffffffffffffffffffffffffffff168152602001945050505050602060405180830381600087803b158015610ded57600080fd5b505af1158015610e01573d6000803e3d6000fd5b505050506040513d6020811015610e1757600080fd5b810190808051906020019092919050505090507fe9c245f1c1a4a7a621218231e7ed679594b1c02c80e4fe05a465ecb46dc37f47338c8c84604051808573ffffffffffffffffffffffffffffffffffffffff1673ffffffffffffffffffffffffffffffffffffffff16815260200184815260200183815260200182815260200194505050505060405180910390a1809750505050505050509695505050505050565b7324a42fd28c976a61df5d00d0599c34c4f90748c881565b60008390508073ffffffffffffffffffffffffffffffffffffffff1663095ea7b384846040518363ffffffff1660e01b8152600401808373ffffffffffffffffffffffffffffffffffffffff1673ffffffffffffffffffffffffffffffffffffffff16815260200182815260200192505050602060405180830381600087803b158015610f5d57600080fd5b505af1158015610f71573d6000803e3d6000fd5b505050506040513d6020811015610f8757600080fd5b81019080805190602001909291905050505050505050565b6000600760009054906101000a900473ffffffffffffffffffffffffffffffffffffffff1673ffffffffffffffffffffffffffffffffffffffff163373ffffffffffffffffffffffffffffffffffffffff1614610ffb57600080fd5b3373ffffffffffffffffffffffffffffffffffffffff166108fc479081150290604051600060405180830381858888f19350505050158015611041573d6000803e3d6000fd5b506001905090565b6110533086611438565b8411156110ab576040517f08c379a000000000000000000000000000000000000000000000000000000000815260040180806020018281038252602e815260200180611d4e602e913960400191505060405180910390fd5b7f45743009bb74e97712f2031f708559b2c6220fe205dfb9405b699d6d3ca261373047604051808373ffffffffffffffffffffffffffffffffffffffff1673ffffffffffffffffffffffffffffffffffffffff1681526020018281526020019250505060405180910390a16060611120611555565b905060006111c0600160009054906101000a900473ffffffffffffffffffffffffffffffffffffffff16600260009054906101000a900473ffffffffffffffffffffffffffffffffffffffff16600360009054906101000a900473ffffffffffffffffffffffffffffffffffffffff16898660008151811061119e57fe5b6020026020010151876001815181106111b357fe5b6020026020010151610ae7565b9050680ad78ebc5ac6200000905060006111f56111e687896115ad90919063ffffffff16565b8361163590919063ffffffff16565b90507f9bb84ab06896b92424eca98a3813abb6130cfa446864550dd42d00ec078c157c3382604051808373ffffffffffffffffffffffffffffffffffffffff1673ffffffffffffffffffffffffffffffffffffffff1681526020018281526020019250505060405180910390a17fa9753006171475c996d98ff2f742502e064a936f31d1949f44a971dbd49acee63047604051808373ffffffffffffffffffffffffffffffffffffffff1673ffffffffffffffffffffffffffffffffffffffff1681526020018281526020019250505060405180910390a160006112e287896115ad90919063ffffffff16565b90506112ee898261167f565b505050505050505050565b600760009054906101000a900473ffffffffffffffffffffffffffffffffffffffff1673ffffffffffffffffffffffffffffffffffffffff163373ffffffffffffffffffffffffffffffffffffffff161461135357600080fd5b61135c81611728565b50565b61142b838473ffffffffffffffffffffffffffffffffffffffff1663a9059cbb905060e01b8484604051602401808373ffffffffffffffffffffffffffffffffffffffff1673ffffffffffffffffffffffffffffffffffffffff16815260200182815260200192505050604051602081830303815290604052907bffffffffffffffffffffffffffffffffffffffffffffffffffffffff19166020820180517bffffffffffffffffffffffffffffffffffffffffffffffffffffffff838183161783525050505061186c565b505050565b600033905090565b6000611442611ab7565b73ffffffffffffffffffffffffffffffffffffffff168273ffffffffffffffffffffffffffffffffffffffff161415611494578273ffffffffffffffffffffffffffffffffffffffff1631905061154f565b8173ffffffffffffffffffffffffffffffffffffffff166370a08231846040518263ffffffff1660e01b8152600401808273ffffffffffffffffffffffffffffffffffffffff1673ffffffffffffffffffffffffffffffffffffffff16815260200191505060206040518083038186803b15801561151157600080fd5b505afa158015611525573d6000803e3d6000fd5b505050506040513d602081101561153b57600080fd5b810190808051906020019092919050505090505b92915050565b606060088054806020026020016040519081016040528092919081815260200182805480156115a357602002820191906000526020600020905b81548152602001906001019080831161158f575b5050505050905090565b60008082840190508381101561162b576040517f08c379a000000000000000000000000000000000000000000000000000000000815260040180806020018281038252601b8152602001807f536166654d6174683a206164646974696f6e206f766572666c6f77000000000081525060200191505060405180910390fd5b8091505092915050565b600061167783836040518060400160405280601e81526020017f536166654d6174683a207375627472616374696f6e206f766572666c6f770000815250611ad3565b905092915050565b60007324a42fd28c976a61df5d00d0599c34c4f90748c873ffffffffffffffffffffffffffffffffffffffff1663ed6ff7606040518163ffffffff1660e01b815260040160206040518083038186803b1580156116db57600080fd5b505afa1580156116ef573d6000803e3d6000fd5b505050506040513d602081101561170557600080fd5b81019080805190602001909291905050509050611723818484611b93565b505050565b600073ffffffffffffffffffffffffffffffffffffffff168173ffffffffffffffffffffffffffffffffffffffff1614156117ae576040517f08c379a0000000000000000000000000000000000000000000000000000000008152600401808060200182810382526026815260200180611d286026913960400191505060405180910390fd5b8073ffffffffffffffffffffffffffffffffffffffff166000809054906101000a900473ffffffffffffffffffffffffffffffffffffffff1673ffffffffffffffffffffffffffffffffffffffff167f8be0079c531659141344cd1fd0a4f28419497f9722a3daafe3b4186f6b6457e060405160405180910390a3806000806101000a81548173ffffffffffffffffffffffffffffffffffffffff021916908373ffffffffffffffffffffffffffffffffffffffff16021790555050565b61188b8273ffffffffffffffffffffffffffffffffffffffff16611c6a565b6118fd576040517f08c379a000000000000000000000000000000000000000000000000000000000815260040180806020018281038252601f8152602001807f5361666545524332303a2063616c6c20746f206e6f6e2d636f6e74726163740081525060200191505060405180910390fd5b600060608373ffffffffffffffffffffffffffffffffffffffff16836040518082805190602001908083835b6020831061194c5780518252602082019150602081019050602083039250611929565b6001836020036101000a0380198251168184511680821785525050505050509050019150506000604051808303816000865af19150503d80600081146119ae576040519150601f19603f3d011682016040523d82523d6000602084013e6119b3565b606091505b509150915081611a2b576040517f08c379a00000000000000000000000000000000000000000000000000000000081526004018080602001828103825260208152602001807f5361666545524332303a206c6f772d6c6576656c2063616c6c206661696c656481525060200191505060405180910390fd5b600081511115611ab157808060200190516020811015611a4a57600080fd5b8101908080519060200190929190505050611ab0576040517f08c379a000000000000000000000000000000000000000000000000000000000815260040180806020018281038252602a815260200180611d7c602a913960400191505060405180910390fd5b5b50505050565b600073eeeeeeeeeeeeeeeeeeeeeeeeeeeeeeeeeeeeeeee905090565b6000838311158290611b80576040517f08c379a00000000000000000000000000000000000000000000000000000000081526004018080602001828103825283818151815260200191508051906020019080838360005b83811015611b45578082015181840152602081019050611b2a565b50505050905090810190601f168015611b725780820380516001836020036101000a031916815260200191505b509250505060405180910390fd5b5060008385039050809150509392505050565b611b9b611ab7565b73ffffffffffffffffffffffffffffffffffffffff168273ffffffffffffffffffffffffffffffffffffffff161415611c39578273ffffffffffffffffffffffffffffffffffffffff168160405180600001905060006040518083038185875af1925050503d8060008114611c2c576040519150601f19603f3d011682016040523d82523d6000602084013e611c31565b606091505b505050611c65565b611c6483828473ffffffffffffffffffffffffffffffffffffffff1661135f9092919063ffffffff16565b5b505050565b60008060007fc5d2460186f7233c927e7db2dcc703c0e500b653ca82273b7bfad8045d85a47060001b9050833f9150808214158015611cac57506000801b8214155b92505050919050565b828054828255906000526020600020908101928215611cf1579160200282015b82811115611cf0578251825591602001919060010190611cd5565b5b509050611cfe9190611d02565b5090565b611d2491905b80821115611d20576000816000905550600101611d08565b5090565b9056fe4f776e61626c653a206e6577206f776e657220697320746865207a65726f2061646472657373496e76616c69642062616c616e63652c207761732074686520666c6173684c6f616e207375636365737366756c3f5361666545524332303a204552433230206f7065726174696f6e20646964206e6f742073756363656564a265627a7a72315820a176052b378f1c493e3cba5ca5a972bbbaf959a8342e09d78e4e72f123afbc0d64736f6c63430005100032",
  "source": "pragma solidity ^0.5.15;\n\nimport \"./aave/FlashLoanReceiverBase.sol\";\nimport \"./aave/ILendingPoolAddressesProvider.sol\";\nimport \"./aave/ILendingPool.sol\";\nimport \"./exchanges/KyberNetworkProxy.sol\";\nimport \"@openzeppelin/contracts/token/ERC20/ERC20.sol\";\nimport \"@openzeppelin/contracts/ownership/Ownable.sol\";\n\ninterface UniswapExchange {\n    function tokenToEthSwapInput(uint256 tokens_sold, uint256 min_eth, uint256 deadline) external returns (uint256  eth_bought);\n    function tokenToEthTransferInput(uint256 tokens_sold, uint256 min_eth, uint256 deadline, address recipient) external returns (uint256  eth_bought);\n    function tokenToEthSwapOutput(uint256 eth_bought, uint256 max_tokens, uint256 deadline) external returns (uint256  tokens_sold);\n}\n\ncontract ArbSlippageTrading is FlashLoanReceiverBase {\n\n  using SafeMath for uint256;\n  address kyberExchangeAddress = 0x818E6FECD516Ecc3849DAf6845e3EC868087B755;\n  address tokenAddress = 0x6B175474E89094C44Da98b954EedeAC495271d0F; // dai\n  address uniSwapExchangeAddress = 0x2a1530C4C41db0B0b2bB646CB5Eb1A67b7158667;\n  uint256 maxTokensSell;\n  uint256 sellDeadline;\n  uint256 minConversionRate;\n  address arbOwner;\n\n  constructor () public {\n    arbOwner = msg.sender;\n  }\n\n  modifier onlyOwner () {\n    require(msg.sender == arbOwner);\n    _;\n  }\n\n  function () external payable {}\n\n  event ethToToken(address trader, uint256 tokens, uint256 token_bought);\n  event tokenToEth(address trader, uint256 ethToSell, uint256 maxTokensSell, uint256 tokens_sold);\n  event profitTake(address trader, uint256 profit);\n  event tradePre(address this, uint256 _amount);\n  event tradeMade(address this, uint256 _amount);\n\n  uint256[] myArray = new uint256[](2);\n\n  function getArray() internal view returns (uint256[] memory) {\n    return myArray;\n  }\n\n  function setArray(uint256 maxTokensSell_a, uint256 sellDeadline_a) public {\n    myArray = [maxTokensSell_a, sellDeadline_a];\n  }\n\n\n  function approveToken(address _tokenAddress, address _exchangeAddress, uint _amount) public {\n    ERC20 token = ERC20(_tokenAddress);\n    token.approve(_exchangeAddress, _amount);\n  }\n\n\n  function trade(\n    address _kyberExchangeAddress,\n    address _tokenAddress,\n    address _uniSwapExchangeAddress,\n    uint256 _ethToSell,\n    uint256 _maxTokensSell,\n    uint256 _sellDeadline\n  )\n    public\n    payable\n    returns (uint256 ethSwaped)\n  {\n    KyberNetworkProxy kyberExchange = KyberNetworkProxy(_kyberExchangeAddress);\n    ERC20 token = ERC20(_tokenAddress);\n    // use _expectedRate for minConversionRate.\n    (uint _expectedRate, uint _slippageRate) = kyberExchange.getExpectedRate(ERC20(0xEeeeeEeeeEeEeeEeEeEeeEEEeeeeEeeeeeeeEEeE),token,_ethToSell);\n\n    // Swaps Eth for Token via Kyber Exchange\n    uint256 token_bought = kyberExchange.swapEtherToToken.value(_ethToSell)(token, _expectedRate);\n    emit ethToToken(msg.sender, _ethToSell, token_bought);\n\n    // check approval\n    approveToken(_tokenAddress, _uniSwapExchangeAddress, token_bought);\n\n    // swap an exact amount of tokens for as much ETH as possible\n    UniswapExchange uniSwapExchange = UniswapExchange(_uniSwapExchangeAddress);\n    uint256 tokens_sold = uniSwapExchange.tokenToEthTransferInput(token_bought, _maxTokensSell, _sellDeadline, address(this));\n\n    emit tokenToEth(msg.sender, _ethToSell, _maxTokensSell, tokens_sold);\n\n    return tokens_sold;\n  }\n\n\n  function withdrawDAI() onlyOwner public returns (bool result) {\n    ERC20 daiToken = ERC20(tokenAddress);\n    daiToken.transfer(msg.sender, daiToken.balanceOf(address(this)));\n    return true;\n  }\n\n  function withdrawETH() onlyOwner public returns (bool result) {\n    msg.sender.transfer(address(this).balance);\n    return true;\n  }\n\n\n  function executeOperation(\n    address _reserve,\n    uint256 _loanedamount,\n    uint256 _fee,\n    bytes calldata _params\n  )\n    external\n  {\n    require(_loanedamount <= getBalanceInternal(address(this), _reserve), \"Invalid balance, was the flashLoan successful?\");\n\n    emit tradePre(address(this), address(this).balance);\n\n    uint256[] memory param = getArray();\n\n    // ETH -> DAI -> ETH\n    uint256 tokens_sold = trade(\n      kyberExchangeAddress,\n      tokenAddress,\n      uniSwapExchangeAddress,\n      _loanedamount,\n      param[0], //maxTokensSell,\n      param[1] //sellDeadline\n    );\n\n    // token_sold has to be greater than _loanedamount, other case will cause revert SafeMath: subtraction overflow.\n    // For test, lets fake the profit.\n    tokens_sold = 200000000000000000000; // 200 eth fake token_sold\n    uint256 profit = tokens_sold.sub(_loanedamount.add(_fee));\n\n    emit profitTake(msg.sender, profit); // record profit in event\n    emit tradeMade(address(this), address(this).balance);\n\n    // Time to transfer the funds back\n    uint totalDebt = _loanedamount.add(_fee);\n    transferFundsBackToPoolInternal(_reserve, totalDebt);\n  }\n}\n",
  "sourcePath": "/Users/chris/Documents/work/study/upperbrain_git/arb-slippage/contracts/ArbSlippageTrading.sol",
  "compiler": {
    "name": "solc",
    "version": "0.5.16+commit.9c3226ce.Emscripten.clang"
  },
  "schemaVersion": "3.0.23",
  "updatedAt": "2020-04-24T21:24:26.503Z",
  "networkType": "ethereum",
  "devdoc": {
    "methods": {
      "isOwner()": {
        "details": "Returns true if the caller is the current owner."
      },
      "owner()": {
        "details": "Returns the address of the current owner."
      },
      "renounceOwnership()": {
        "details": "Leaves the contract without owner. It will not be possible to call `onlyOwner` functions anymore. Can only be called by the current owner.     * NOTE: Renouncing ownership will leave the contract without an owner, thereby removing any functionality that is only available to the owner."
      },
      "transferOwnership(address)": {
        "details": "Transfers ownership of the contract to a new account (`newOwner`). Can only be called by the current owner."
      },
      "withdraw(address)": {
        "details": "Withdraw asset.",
        "params": {
          "_assetAddress": "Asset to be withdrawn."
        }
      }
    }
  },
  "userdoc": {
    "methods": {}
  }
}