{
  "contractName": "ForceSend",
  "abi": [
    {
      "constant": false,
      "inputs": [
        {
          "internalType": "address payable",
          "name": "victim",
          "type": "address"
        }
      ],
      "name": "go",
      "outputs": [],
      "payable": true,
      "stateMutability": "payable",
      "type": "function"
    }
  ],
  "bytecode": "0x6080604052348015600f57600080fd5b5060b08061001e6000396000f3fe608060405260043610601c5760003560e01c80633434e749146021575b600080fd5b606060048036036020811015603557600080fd5b81019080803573ffffffffffffffffffffffffffffffffffffffff1690602001909291905050506062565b005b8073ffffffffffffffffffffffffffffffffffffffff16fffea265627a7a723158205e30793d52ef6fa47faee8fea6928bed27feeaf06e26b223613a4d0b2aa4eefa64736f6c63430005100032",
  "source": "pragma solidity ^0.5.15;\n\n// For test suite\ncontract ForceSend {\n    function go(address payable victim) external payable {\n        selfdestruct(victim);\n    }\n}\n",
  "sourcePath": "/Users/chris/Documents/work/study/upperbrain_git/arb-slippage/contracts/utils/ForceSend.sol",
  "compiler": {
    "name": "solc",
    "version": "0.5.16+commit.9c3226ce.Emscripten.clang"
  },
  "schemaVersion": "3.0.23",
  "updatedAt": "2020-04-24T19:46:31.468Z",
  "devdoc": {
    "methods": {}
  },
  "userdoc": {
    "methods": {}
  }
}